{
  "_format": "hh-sol-artifact-1",
  "contractName": "TransferDomainImplV1",
  "sourceName": "contracts/TransferDomainImplV1.sol",
  "abi": [
    {
      "anonymous": false,
      "inputs": [
        {
          "indexed": true,
          "internalType": "address",
          "name": "from",
          "type": "address"
        },
        {
          "indexed": true,
          "internalType": "address",
          "name": "to",
          "type": "address"
        },
        {
          "indexed": false,
          "internalType": "uint256",
          "name": "amount",
          "type": "uint256"
        }
      ],
      "name": "Transfer",
      "type": "event"
    },
    {
      "anonymous": false,
      "inputs": [
        {
          "indexed": false,
          "internalType": "string",
          "name": "vmAddress",
          "type": "string"
        }
      ],
      "name": "VMTransfer",
      "type": "event"
    },
    {
      "inputs": [
        {
          "internalType": "address",
          "name": "account",
          "type": "address"
        }
      ],
      "name": "balanceOf",
      "outputs": [
        {
          "internalType": "uint256",
          "name": "",
          "type": "uint256"
        }
      ],
      "stateMutability": "view",
      "type": "function"
    },
    {
      "inputs": [],
      "name": "decimals",
      "outputs": [
        {
          "internalType": "uint8",
          "name": "",
          "type": "uint8"
        }
      ],
      "stateMutability": "view",
      "type": "function"
    },
    {
      "inputs": [],
      "name": "name",
      "outputs": [
        {
          "internalType": "string",
          "name": "",
          "type": "string"
        }
      ],
      "stateMutability": "view",
      "type": "function"
    },
    {
      "inputs": [],
      "name": "symbol",
      "outputs": [
        {
          "internalType": "string",
          "name": "",
          "type": "string"
        }
      ],
      "stateMutability": "view",
      "type": "function"
    },
    {
      "inputs": [],
      "name": "totalSupply",
      "outputs": [
        {
          "internalType": "uint256",
          "name": "",
          "type": "uint256"
        }
      ],
      "stateMutability": "view",
      "type": "function"
    },
    {
      "inputs": [
        {
          "internalType": "address",
          "name": "from",
          "type": "address"
        },
        {
          "internalType": "address payable",
          "name": "to",
          "type": "address"
        },
        {
          "internalType": "uint256",
          "name": "amount",
          "type": "uint256"
        },
        {
          "internalType": "string",
          "name": "vmAddress",
          "type": "string"
        }
      ],
      "name": "transfer",
      "outputs": [],
      "stateMutability": "nonpayable",
      "type": "function"
    },
    {
      "inputs": [
        {
          "internalType": "address",
          "name": "contractAddress",
          "type": "address"
        },
        {
          "internalType": "address",
          "name": "from",
          "type": "address"
        },
        {
          "internalType": "address payable",
          "name": "to",
          "type": "address"
        },
        {
          "internalType": "uint256",
          "name": "amount",
          "type": "uint256"
        },
        {
          "internalType": "string",
          "name": "vmAddress",
          "type": "string"
        }
      ],
      "name": "transferDST20",
      "outputs": [],
      "stateMutability": "nonpayable",
      "type": "function"
    }
  ],
  "bytecode": "0x608060405234801561001057600080fd5b50610a77806100206000396000f3fe608060405234801561001057600080fd5b506004361061007d5760003560e01c806370a082311161005b57806370a08231146100dc578063917e9b691461010c57806395d89b4114610128578063d57b2826146101465761007d565b806306fdde031461008257806318160ddd146100a0578063313ce567146100be575b600080fd5b61008a610162565b60405161009791906104e6565b60405180910390f35b6100a861019f565b6040516100b59190610521565b60405180910390f35b6100c66101a9565b6040516100d39190610558565b60405180910390f35b6100f660048036038101906100f191906105e5565b6101b2565b6040516101039190610521565b60405180910390f35b610126600480360381019061012191906107b1565b6101fa565b005b6101306102b9565b60405161013d91906104e6565b60405180910390f35b610160600480360381019061015b9190610848565b6102f6565b005b60606040518060400160405280600e81526020017f5472616e73666572446f6d61696e000000000000000000000000000000000000815250905090565b6000600154905090565b60006012905090565b60008060008373ffffffffffffffffffffffffffffffffffffffff1673ffffffffffffffffffffffffffffffffffffffff168152602001908152602001600020549050919050565b8473ffffffffffffffffffffffffffffffffffffffff166323b872dd8585856040518463ffffffff1660e01b815260040161023793929190610939565b6020604051808303816000875af1158015610256573d6000803e3d6000fd5b505050506040513d601f19601f8201168201806040525081019061027a91906109a8565b507f5b494f8e62c9b3ea113ad3af9830e30a412c97a58a1237f83b3a515c94bc5577816040516102aa91906104e6565b60405180910390a15050505050565b60606040518060400160405280600381526020017f4446490000000000000000000000000000000000000000000000000000000000815250905090565b3073ffffffffffffffffffffffffffffffffffffffff168373ffffffffffffffffffffffffffffffffffffffff16146103b4578147101561036c576040517f08c379a000000000000000000000000000000000000000000000000000000000815260040161036390610a21565b60405180910390fd5b8273ffffffffffffffffffffffffffffffffffffffff166108fc839081150290604051600060405180830381858888f193505050501580156103b2573d6000803e3d6000fd5b505b8273ffffffffffffffffffffffffffffffffffffffff168473ffffffffffffffffffffffffffffffffffffffff167fddf252ad1be2c89b69c2b068fc378daa952ba7f163c4a11628f55a4df523b3ef846040516104119190610521565b60405180910390a37f5b494f8e62c9b3ea113ad3af9830e30a412c97a58a1237f83b3a515c94bc55778160405161044891906104e6565b60405180910390a150505050565b600081519050919050565b600082825260208201905092915050565b60005b83811015610490578082015181840152602081019050610475565b60008484015250505050565b6000601f19601f8301169050919050565b60006104b882610456565b6104c28185610461565b93506104d2818560208601610472565b6104db8161049c565b840191505092915050565b6000602082019050818103600083015261050081846104ad565b905092915050565b6000819050919050565b61051b81610508565b82525050565b60006020820190506105366000830184610512565b92915050565b600060ff82169050919050565b6105528161053c565b82525050565b600060208201905061056d6000830184610549565b92915050565b6000604051905090565b600080fd5b600080fd5b600073ffffffffffffffffffffffffffffffffffffffff82169050919050565b60006105b282610587565b9050919050565b6105c2816105a7565b81146105cd57600080fd5b50565b6000813590506105df816105b9565b92915050565b6000602082840312156105fb576105fa61057d565b5b6000610609848285016105d0565b91505092915050565b600061061d82610587565b9050919050565b61062d81610612565b811461063857600080fd5b50565b60008135905061064a81610624565b92915050565b61065981610508565b811461066457600080fd5b50565b60008135905061067681610650565b92915050565b600080fd5b600080fd5b7f4e487b7100000000000000000000000000000000000000000000000000000000600052604160045260246000fd5b6106be8261049c565b810181811067ffffffffffffffff821117156106dd576106dc610686565b5b80604052505050565b60006106f0610573565b90506106fc82826106b5565b919050565b600067ffffffffffffffff82111561071c5761071b610686565b5b6107258261049c565b9050602081019050919050565b82818337600083830152505050565b600061075461074f84610701565b6106e6565b9050828152602081018484840111156107705761076f610681565b5b61077b848285610732565b509392505050565b600082601f8301126107985761079761067c565b5b81356107a8848260208601610741565b91505092915050565b600080600080600060a086880312156107cd576107cc61057d565b5b60006107db888289016105d0565b95505060206107ec888289016105d0565b94505060406107fd8882890161063b565b935050606061080e88828901610667565b925050608086013567ffffffffffffffff81111561082f5761082e610582565b5b61083b88828901610783565b9150509295509295909350565b600080600080608085870312156108625761086161057d565b5b6000610870878288016105d0565b94505060206108818782880161063b565b935050604061089287828801610667565b925050606085013567ffffffffffffffff8111156108b3576108b2610582565b5b6108bf87828801610783565b91505092959194509250565b6108d4816105a7565b82525050565b6000819050919050565b60006108ff6108fa6108f584610587565b6108da565b610587565b9050919050565b6000610911826108e4565b9050919050565b600061092382610906565b9050919050565b61093381610918565b82525050565b600060608201905061094e60008301866108cb565b61095b602083018561092a565b6109686040830184610512565b949350505050565b60008115159050919050565b61098581610970565b811461099057600080fd5b50565b6000815190506109a28161097c565b92915050565b6000602082840312156109be576109bd61057d565b5b60006109cc84828501610993565b91505092915050565b7f496e73756666696369656e7420636f6e74726163742062616c616e6365000000600082015250565b6000610a0b601d83610461565b9150610a16826109d5565b602082019050919050565b60006020820190508181036000830152610a3a816109fe565b905091905056fea2646970667358221220341907efb37ae32332d194c4c439d4ab7e1f8041fea280bb9556452c61d954c964736f6c63430008130033",
  "linkReferences": {},
  "deployedLinkReferences": {}
}